:100000000C9462000C948A000C948A000C948A0070
:100010000C948A000C948A000C948A000C948A0038
:100020000C948A000C948A000C948A000C948A0028
:100030000C948A000C948A000C948A000C948A0018
:100040000C94C0040C948A000C9403030C943503A4
:100050000C948A000C948A000C948A000C948A00F8
:100060000C948A000C948A00000000080002010031
:100070000003040700000000000000000102040863
:100080001020408001020408102001020408102002
:10009000040404040404040402020202020203032E
:1000A00003030303000000002300260029000000D2
:1000B0000000250028002B0000000000240027007D
:1000C0002A00650311241FBECFEFD8E0DEBFCDBFED
:1000D00012E0A0E0B1E0EEE0FDE002C005900D927C
:1000E000A034B107D9F722E0A0E4B2E001C01D922C
:1000F000AA3EB207E1F710E0C4ECD0E004C02297BA
:10010000FE010E948106C23CD107C9F70E94B104DA
:100110000C9485060C94000026E040E855E260E06F
:1001200070E084E492E00E94A10265E071E084E462
:1001300092E00E94F30384E492E00C94EF0362E007
:1001400082E10E94C40562E083E10C94C40561E091
:100150008AE00E94C40561E08BE00E94C40561E072
:100160008CE00E94C40560E08AE00E94FD0560E02A
:100170008BE00E94FD05609104018CE00C94FD056C
:10018000882311F061E001C060E08AE00E94FD0573
:1001900060E08BE00E94FD058091000190910101DB
:1001A0000E94550561E08BE00E94FD0580910201EF
:1001B000909103010C9455050E948C000E949F00B1
:1001C0000C94A7006CE271E084E492E00E94F303D7
:1001D00084E492E00E94EF0380914102882331F190
:1001E000809141028823E1F081E00E94C00082E119
:1001F0000E94330621E0892B09F420E0209341027C
:1002000061E471E084E492E00E94E60360914102BF
:1002100070E04AE050E084E492E00E94A804E0CF5D
:1002200060E571E084E492E00C94F3036BE671E026
:1002300084E492E00E94F30364E670E080E090E0E2
:100240000C942D0580914002882319F18091400281
:100250008823E1F080E00E94C00083E10E94330621
:1002600021E0892B09F420E02093400261E971E04C
:1002700084E492E00E94E6036091400270E04AE06C
:1002800050E084E492E00E94A804E0CF62EA71E0CA
:1002900002C06CEB71E084E492E00E94F30364E638
:1002A00070E080E090E00C942D05CF93DF9360E048
:1002B0008CE00E94FD058CE00E943306EC0164EEA8
:1002C00071E084E492E00E94E60361E070E0CD2BEF
:1002D00011F460E070E04AE050E084E492E00E94B3
:1002E000A8046DEE71E084E492E0DF91CF910C946C
:1002F000F30384E492E00E94BE011816190644F448
:1003000084E492E00E94D7019093430280934202DA
:10031000089582E10E94330621E0892B09F420E050
:100320002093410283E10E94330621E0892B09F4E6
:1003300020E0209340020E94790180914202909136
:1003400043028233910541F08333910541F0C19717
:1003500049F40E94E2000CC00E94220109C00E94E0
:10036000550106C065E072E084E492E00E94F30368
:1003700064EF71E080E090E00C942D05FC01818D2C
:10038000228D90E0805C9F4F821B91098F7399278B
:100390000895FC01918D828D981731F0828DE80FC0
:1003A000F11D858D90E008958FEF9FEF0895FC017A
:1003B000918D828D981761F0828DDF01A80FB11D9C
:1003C0005D968C91928D9F5F9F73928F90E00895C0
:1003D0008FEF9FEF08958BE593E0892B49F080E044
:1003E00090E0892B29F00E945B0381110C9400009E
:1003F0000895FC01848DDF01A80FB11DA35ABF4FE2
:100400002C91848D90E001968F739927848FA68913
:10041000B7892C93A089B1898C9180648C93938D3A
:10042000848D981306C00288F389E02D80818F7D2A
:1004300080830895CF93DF93EC01888D8823C9F0E2
:10044000EA89FB89808185FD05C0A889B9898C91DD
:1004500086FD0FC00FB607FCF5CF808185FFF2CF78
:10046000A889B9898C9185FFEDCFCE010E94F90151
:10047000E7CFDF91CF910895CF92DF92FF920F9354
:100480001F93CF93DF931F92CDB7DEB76C0181E04E
:10049000D60158968C9358975B969C915B975C9687
:1004A0008C915C97981307C05096ED91FC915197F1
:1004B000808185FD2EC0F601038D10E00F5F1F4F78
:1004C0000F731127F02EF601848DF81211C00FB6AC
:1004D00007FCF9CFD6015096ED91FC9151978081A0
:1004E00085FFF1CFC60169830E94F9016981EBCFD5
:1004F000838DE80FF11DE35AFF4F6083D6015B96B1
:100500000C935B975296ED91FC915397808180629A
:100510000CC0D6015696ED91FC915797608350968A
:10052000ED91FC91519780818064808381E090E01F
:100530000F90DF91CF911F910F91FF90DF90CF909F
:100540000895BF92CF92DF92EF92FF92CF93DF9305
:10055000EC016A017B01B22EE889F98982E080838F
:10056000411581EE580761057105A1F060E079E061
:100570008DE390E0A70196010E945D0621503109AC
:10058000410951095695479537952795211580E1E1
:10059000380798F0E889F989108260E874E88EE1FC
:1005A00090E0A70196010E945D06215031094109A2
:1005B00051095695479537952795EC85FD853083EC
:1005C000EE85FF852083188EEC89FD89B082EA894B
:1005D000FB89808180618083EA89FB8980818860D2
:1005E0008083EA89FB89808180688083EA89FB892E
:1005F00080818F7D8083DF91CF91FF90EF90DF909E
:10060000CF90BF9008951F920F920FB60F921124B2
:100610002F938F939F93EF93FF93E0915402F09168
:1006200055028081E0915A02F0915B0282FD12C076
:10063000908180915D028F5F8F7320915E0282179F
:1006400051F0E0915D02F0E0EC5BFD4F958F8093FF
:100650005D0201C08081FF91EF919F918F912F9159
:100660000F900FBE0F901F9018951F920F920FB60C
:100670000F9211242F933F934F935F936F937F9328
:100680008F939F93AF93BF93EF93FF9384E492E094
:100690000E94F901FF91EF91BF91AF919F918F91CE
:1006A0007F916F915F914F913F912F910F900FBE6E
:1006B0000F901F90189584E492E00E94BE0121E003
:1006C000892B09F420E0822F08951092470210929E
:1006D000460288EE93E0A0E0B0E080934802909359
:1006E0004902A0934A02B0934B0282E292E09093B7
:1006F00045028093440285EC90E0909351028093F0
:10070000500284EC90E0909353028093520280EC6C
:1007100090E0909355028093540281EC90E0909386
:1007200057028093560282EC90E090935902809396
:10073000580286EC90E090935B0280935A021092EC
:100740005D0210925E0210925F02109260020895A4
:10075000CF92DF92EF92FF920F931F93CF93DF938D
:100760006C017A01EB01E60EF71E00E010E0CE15F9
:10077000DF0561F06991D601ED91FC910190F08166
:10078000E02DC6010995080F191FF1CFC801DF91AF
:10079000CF911F910F91FF90EF90DF90CF90089530
:1007A0006115710581F0DB010D900020E9F7AD01C5
:1007B00041505109461B570BDC01ED91FC91028021
:1007C000F381E02D099480E090E008950C94D0032B
:1007D000DC01ED91FC910190F081E02D09946EE235
:1007E00072E00C94D0030F931F93CF93DF93EC012F
:1007F0000E94D0038C01CE010E94EF03800F911F55
:10080000DF91CF911F910F9108958F929F92AF9298
:10081000BF92CF92DF92EF92FF920F931F93CF93ED
:10082000DF93CDB7DEB7A1970FB6F894DEBF0FBE4A
:10083000CDBF7C01C42EE52FCB01D22E19A221E021
:100840002D1510F02AE0D22E8E010F5D1F4F8D2C3A
:10085000912CA12CB12C6C2D7E2FA50194010E940E
:100860005D068C2DD29E80191124015011098A3009
:1008700014F4805D01C0895CF80180832115310585
:100880004105510521F0C22EE32FCA01E4CFB80182
:10089000C7010E94D003A1960FB6F894DEBF0FBE29
:1008A000CDBFDF91CF911F910F91FF90EF90DF901F
:1008B000CF90BF90AF909F908F900895CF92DF928E
:1008C000EF92FF920F931F93CF93DF93EC016A0196
:1008D0007B012115310579F4E881F9810190F081DE
:1008E000E02D642FDF91CF911F910F91FF90EF903A
:1008F000DF90CF9009942A303105E9F477FF1AC0D0
:100900006DE20E94E8038C0144275527BA014C1977
:100910005D096E097F092AE0CE010E940504800F5F
:10092000911FDF91CF911F910F91FF90EF90DF907A
:10093000CF9008952AE0B701A601CE01DF91CF91B3
:100940001F910F91FF90EF90DF90CF900C940504D2
:100950009A01AB01662757FD6095762F0C945E04D3
:1009600008950E9460050E94B0040E94DC00CBEE56
:10097000D1E00E9489012097E1F30E94EB01F9CFB9
:100980001F920F920FB60F9211242F933F938F93C4
:100990009F93AF93BF938091E2029091E302A09165
:1009A000E402B091E5023091E10223E0230F2D37FC
:1009B00020F40196A11DB11D05C026E8230F029663
:1009C000A11DB11D2093E1028093E2029093E30206
:1009D000A093E402B093E5028091E6029091E702D1
:1009E000A091E802B091E9020196A11DB11D80938A
:1009F000E6029093E702A093E802B093E902BF9168
:100A0000AF919F918F913F912F910F900FBE0F90BB
:100A10001F9018953FB7F8948091E6029091E702F5
:100A2000A091E802B091E90226B5A89B05C02F3F2E
:100A300019F00196A11DB11D3FBF6627782F892FA0
:100A40009A2F620F711D811D911D42E0660F771F65
:100A5000881F991F4A95D1F70895CF92DF92EF92A0
:100A6000FF92CF93DF936B017C010E940A05EB019B
:100A7000C114D104E104F10489F00E945C060E94D3
:100A80000A056C1B7D0B683E734090F381E0C81A29
:100A9000D108E108F108C851DC4FEACFDF91CF91CE
:100AA000FF90EF90DF90CF9008958230910538F05D
:100AB000880F991F880F991F05970197F1F70895DF
:100AC000789484B5826084BD84B5816084BD85B529
:100AD000826085BD85B5816085BDEEE6F0E08081F0
:100AE00081608083E1E8F0E0108280818260808311
:100AF000808181608083E0E8F0E080818160808394
:100B0000E1EBF0E0808184608083E0EBF0E08081C5
:100B100081608083EAE7F0E0808184608083808167
:100B2000826080838081816080838081806880830F
:100B30001092C1000895833081F028F4813099F03B
:100B40008230A1F008958730A9F08830B9F0843060
:100B5000D1F4809180008F7D03C0809180008F77D9
:100B600080938000089584B58F7702C084B58F7D0F
:100B700084BD08958091B0008F7703C08091B0004C
:100B80008F7D8093B0000895CF93DF9390E0FC01B8
:100B9000E458FF4F2491FC01E057FF4F84918823D4
:100BA00049F190E0880F991FFC01E854FF4FA5918F
:100BB000B49182559F4FFC01C591D4919FB76111AB
:100BC00008C0F8948C91209582238C93888182238D
:100BD0000AC0623051F4F8948C91322F30958323FF
:100BE0008C938881822B888304C0F8948C91822B0B
:100BF0008C939FBFDF91CF9108950F931F93CF9355
:100C0000DF931F92CDB7DEB7282F30E0F901E85906
:100C1000FF4F8491F901E458FF4F1491F901E05717
:100C2000FF4F04910023C9F0882321F069830E94BB
:100C30009B056981E02FF0E0EE0FFF1FE255FF4FAB
:100C4000A591B4919FB7F8948C91611103C0109550
:100C5000812301C0812B8C939FBF0F90DF91CF9197
:100C60001F910F910895CF93DF93282F30E0F90162
:100C7000E859FF4F8491F901E458FF4FD491F901ED
:100C8000E057FF4FC491CC2391F081110E949B0546
:100C9000EC2FF0E0EE0FFF1FEC55FF4FA591B49144
:100CA0002C912D2381E090E021F480E002C080E0CF
:100CB00090E0DF91CF9108950895A1E21A2EAA1B2A
:100CC000BB1BFD010DC0AA1FBB1FEE1FFF1FA217FC
:100CD000B307E407F50720F0A21BB30BE40BF50BF9
:100CE000661F771F881F991F1A9469F76095709582
:100CF000809590959B01AC01BD01CF010895EE0F49
:0E0D0000FF1F0590F491E02D0994F894FFCFA9
:100D0E001E00E803012D2D2D2053746172742053A3
:100D1E00657269616C204D6F6E69746F72205345F8
:100D2E004E445F52435645202D2D2D002D2D2D2046
:100D3E00544950205550205354415254202D2D2D9E
:100D4E00002D2D2D20544950205550202D2D2D0095
:100D5E005468652054697070657220757070657284
:100D6E0020706F736974696F6E210054686520542A
:100D7E00697070657220697320616C726561647947
:100D8E0020696E20757020706F736974696F6E21A3
:100D9E00002D2D2D2054495020444F574E202D2DDF
:100DAE002D005468652054697070657220646F77E9
:100DBE006E20706F736974696F6E210054686520C0
:100DCE0054697070657220697320616C726561641C
:100DDE007920696E20646F776E20706F7369746905
:100DEE006F6E2100454E41424C453A200020202D89
:100DFE002D2D205449502053544F5020444F4E45D2
:100E0E00202D2D2D00546970205374617465206F50
:100E1E007574206F662073636F706521200000006B
:100E2E0000003C02A803BE01D701C9011A020D0A37
:100E3E00006E616E00696E66006F7666002E0000B1
:00000001FF
